{
  "_format": "hh-sol-artifact-1",
  "contractName": "NiftyRetreatNFT",
  "sourceName": "contracts/NiftyRetreatNFT.sol",
  "abi": [
    {
      "inputs": [],
      "stateMutability": "nonpayable",
      "type": "constructor"
    },
    {
      "inputs": [],
      "name": "ApprovalCallerNotOwnerNorApproved",
      "type": "error"
    },
    {
      "inputs": [],
      "name": "ApprovalQueryForNonexistentToken",
      "type": "error"
    },
    {
      "inputs": [],
      "name": "ApprovalToCurrentOwner",
      "type": "error"
    },
    {
      "inputs": [],
      "name": "ApproveToCaller",
      "type": "error"
    },
    {
      "inputs": [],
      "name": "BalanceQueryForZeroAddress",
      "type": "error"
    },
    {
      "inputs": [],
      "name": "MintToZeroAddress",
      "type": "error"
    },
    {
      "inputs": [],
      "name": "MintZeroQuantity",
      "type": "error"
    },
    {
      "inputs": [],
      "name": "OwnerQueryForNonexistentToken",
      "type": "error"
    },
    {
      "inputs": [],
      "name": "TransferCallerNotOwnerNorApproved",
      "type": "error"
    },
    {
      "inputs": [],
      "name": "TransferFromIncorrectOwner",
      "type": "error"
    },
    {
      "inputs": [],
      "name": "TransferToNonERC721ReceiverImplementer",
      "type": "error"
    },
    {
      "inputs": [],
      "name": "TransferToZeroAddress",
      "type": "error"
    },
    {
      "inputs": [],
      "name": "URIQueryForNonexistentToken",
      "type": "error"
    },
    {
      "anonymous": false,
      "inputs": [
        {
          "indexed": true,
          "internalType": "address",
          "name": "owner",
          "type": "address"
        },
        {
          "indexed": true,
          "internalType": "address",
          "name": "approved",
          "type": "address"
        },
        {
          "indexed": true,
          "internalType": "uint256",
          "name": "tokenId",
          "type": "uint256"
        }
      ],
      "name": "Approval",
      "type": "event"
    },
    {
      "anonymous": false,
      "inputs": [
        {
          "indexed": true,
          "internalType": "address",
          "name": "owner",
          "type": "address"
        },
        {
          "indexed": true,
          "internalType": "address",
          "name": "operator",
          "type": "address"
        },
        {
          "indexed": false,
          "internalType": "bool",
          "name": "approved",
          "type": "bool"
        }
      ],
      "name": "ApprovalForAll",
      "type": "event"
    },
    {
      "anonymous": false,
      "inputs": [
        {
          "indexed": true,
          "internalType": "address",
          "name": "previousOwner",
          "type": "address"
        },
        {
          "indexed": true,
          "internalType": "address",
          "name": "newOwner",
          "type": "address"
        }
      ],
      "name": "OwnershipTransferred",
      "type": "event"
    },
    {
      "anonymous": false,
      "inputs": [
        {
          "indexed": true,
          "internalType": "address",
          "name": "from",
          "type": "address"
        },
        {
          "indexed": true,
          "internalType": "address",
          "name": "to",
          "type": "address"
        },
        {
          "indexed": true,
          "internalType": "uint256",
          "name": "tokenId",
          "type": "uint256"
        }
      ],
      "name": "Transfer",
      "type": "event"
    },
    {
      "inputs": [],
      "name": "_maxTokens",
      "outputs": [
        {
          "internalType": "uint256",
          "name": "",
          "type": "uint256"
        }
      ],
      "stateMutability": "view",
      "type": "function"
    },
    {
      "inputs": [],
      "name": "_tokenUriBase",
      "outputs": [
        {
          "internalType": "string",
          "name": "",
          "type": "string"
        }
      ],
      "stateMutability": "view",
      "type": "function"
    },
    {
      "inputs": [
        {
          "internalType": "address",
          "name": "to",
          "type": "address"
        },
        {
          "internalType": "uint256",
          "name": "tokenId",
          "type": "uint256"
        }
      ],
      "name": "approve",
      "outputs": [],
      "stateMutability": "nonpayable",
      "type": "function"
    },
    {
      "inputs": [
        {
          "internalType": "address",
          "name": "owner",
          "type": "address"
        }
      ],
      "name": "balanceOf",
      "outputs": [
        {
          "internalType": "uint256",
          "name": "",
          "type": "uint256"
        }
      ],
      "stateMutability": "view",
      "type": "function"
    },
    {
      "inputs": [
        {
          "internalType": "uint256",
          "name": "tokenId",
          "type": "uint256"
        }
      ],
      "name": "getApproved",
      "outputs": [
        {
          "internalType": "address",
          "name": "",
          "type": "address"
        }
      ],
      "stateMutability": "view",
      "type": "function"
    },
    {
      "inputs": [],
      "name": "getBaseURI",
      "outputs": [
        {
          "internalType": "string",
          "name": "",
          "type": "string"
        }
      ],
      "stateMutability": "view",
      "type": "function"
    },
    {
      "inputs": [
        {
          "internalType": "address",
          "name": "owner",
          "type": "address"
        },
        {
          "internalType": "address",
          "name": "operator",
          "type": "address"
        }
      ],
      "name": "isApprovedForAll",
      "outputs": [
        {
          "internalType": "bool",
          "name": "",
          "type": "bool"
        }
      ],
      "stateMutability": "view",
      "type": "function"
    },
    {
      "inputs": [],
      "name": "mint",
      "outputs": [],
      "stateMutability": "payable",
      "type": "function"
    },
    {
      "inputs": [
        {
          "internalType": "address",
          "name": "to",
          "type": "address"
        }
      ],
      "name": "mintTo",
      "outputs": [],
      "stateMutability": "payable",
      "type": "function"
    },
    {
      "inputs": [],
      "name": "name",
      "outputs": [
        {
          "internalType": "string",
          "name": "",
          "type": "string"
        }
      ],
      "stateMutability": "view",
      "type": "function"
    },
    {
      "inputs": [],
      "name": "owner",
      "outputs": [
        {
          "internalType": "address",
          "name": "",
          "type": "address"
        }
      ],
      "stateMutability": "view",
      "type": "function"
    },
    {
      "inputs": [
        {
          "internalType": "uint256",
          "name": "tokenId",
          "type": "uint256"
        }
      ],
      "name": "ownerOf",
      "outputs": [
        {
          "internalType": "address",
          "name": "",
          "type": "address"
        }
      ],
      "stateMutability": "view",
      "type": "function"
    },
    {
      "inputs": [],
      "name": "renounceOwnership",
      "outputs": [],
      "stateMutability": "nonpayable",
      "type": "function"
    },
    {
      "inputs": [
        {
          "internalType": "address",
          "name": "from",
          "type": "address"
        },
        {
          "internalType": "address",
          "name": "to",
          "type": "address"
        },
        {
          "internalType": "uint256",
          "name": "tokenId",
          "type": "uint256"
        }
      ],
      "name": "safeTransferFrom",
      "outputs": [],
      "stateMutability": "nonpayable",
      "type": "function"
    },
    {
      "inputs": [
        {
          "internalType": "address",
          "name": "from",
          "type": "address"
        },
        {
          "internalType": "address",
          "name": "to",
          "type": "address"
        },
        {
          "internalType": "uint256",
          "name": "tokenId",
          "type": "uint256"
        },
        {
          "internalType": "bytes",
          "name": "_data",
          "type": "bytes"
        }
      ],
      "name": "safeTransferFrom",
      "outputs": [],
      "stateMutability": "nonpayable",
      "type": "function"
    },
    {
      "inputs": [
        {
          "internalType": "address",
          "name": "operator",
          "type": "address"
        },
        {
          "internalType": "bool",
          "name": "approved",
          "type": "bool"
        }
      ],
      "name": "setApprovalForAll",
      "outputs": [],
      "stateMutability": "nonpayable",
      "type": "function"
    },
    {
      "inputs": [
        {
          "internalType": "string",
          "name": "baseURI",
          "type": "string"
        }
      ],
      "name": "setBaseURI",
      "outputs": [],
      "stateMutability": "nonpayable",
      "type": "function"
    },
    {
      "inputs": [
        {
          "internalType": "uint256",
          "name": "newTotalTokens",
          "type": "uint256"
        }
      ],
      "name": "setTotalTokens",
      "outputs": [],
      "stateMutability": "nonpayable",
      "type": "function"
    },
    {
      "inputs": [
        {
          "internalType": "bytes4",
          "name": "interfaceId",
          "type": "bytes4"
        }
      ],
      "name": "supportsInterface",
      "outputs": [
        {
          "internalType": "bool",
          "name": "",
          "type": "bool"
        }
      ],
      "stateMutability": "view",
      "type": "function"
    },
    {
      "inputs": [],
      "name": "symbol",
      "outputs": [
        {
          "internalType": "string",
          "name": "",
          "type": "string"
        }
      ],
      "stateMutability": "view",
      "type": "function"
    },
    {
      "inputs": [
        {
          "internalType": "uint256",
          "name": "tokenId",
          "type": "uint256"
        }
      ],
      "name": "tokenURI",
      "outputs": [
        {
          "internalType": "string",
          "name": "",
          "type": "string"
        }
      ],
      "stateMutability": "view",
      "type": "function"
    },
    {
      "inputs": [],
      "name": "totalSupply",
      "outputs": [
        {
          "internalType": "uint256",
          "name": "",
          "type": "uint256"
        }
      ],
      "stateMutability": "view",
      "type": "function"
    },
    {
      "inputs": [
        {
          "internalType": "address",
          "name": "from",
          "type": "address"
        },
        {
          "internalType": "address",
          "name": "to",
          "type": "address"
        },
        {
          "internalType": "uint256",
          "name": "tokenId",
          "type": "uint256"
        }
      ],
      "name": "transferFrom",
      "outputs": [],
      "stateMutability": "nonpayable",
      "type": "function"
    },
    {
      "inputs": [
        {
          "internalType": "address",
          "name": "newOwner",
          "type": "address"
        }
      ],
      "name": "transferOwnership",
      "outputs": [],
      "stateMutability": "nonpayable",
      "type": "function"
    }
  ],
  "bytecode": "0x6080604052602d600b553480156200001657600080fd5b506040518060400160405280601181526020017f4e696674792052657472656174204e46540000000000000000000000000000008152506040518060400160405280600581526020017f4e4946545900000000000000000000000000000000000000000000000000000081525081600290805190602001906200009b9291906200021c565b508060039080519060200190620000b49291906200021c565b50620000c56200014960201b60201c565b6000819055505050620000ed620000e16200014e60201b60201c565b6200015660201b60201c565b60016009819055506040518060400160405280601481526020017f697066733a2f2f495046535f424153455f55524c000000000000000000000000815250600a9080519060200190620001429291906200021c565b5062000331565b600090565b600033905090565b6000600860009054906101000a900473ffffffffffffffffffffffffffffffffffffffff16905081600860006101000a81548173ffffffffffffffffffffffffffffffffffffffff021916908373ffffffffffffffffffffffffffffffffffffffff1602179055508173ffffffffffffffffffffffffffffffffffffffff168173ffffffffffffffffffffffffffffffffffffffff167f8be0079c531659141344cd1fd0a4f28419497f9722a3daafe3b4186f6b6457e060405160405180910390a35050565b8280546200022a90620002cc565b90600052602060002090601f0160209004810192826200024e57600085556200029a565b82601f106200026957805160ff19168380011785556200029a565b828001600101855582156200029a579182015b82811115620002995782518255916020019190600101906200027c565b5b509050620002a99190620002ad565b5090565b5b80821115620002c8576000816000905550600101620002ae565b5090565b60006002820490506001821680620002e557607f821691505b60208210811415620002fc57620002fb62000302565b5b50919050565b7f4e487b7100000000000000000000000000000000000000000000000000000000600052602260045260246000fd5b61305880620003416000396000f3fe60806040526004361061014b5760003560e01c806370a08231116100b6578063a22cb4651161006f578063a22cb46514610452578063b0b922631461047b578063b88d4fde146104a4578063c87b56dd146104cd578063e985e9c51461050a578063f2fde38b146105475761014b565b806370a0823114610361578063714c53981461039e578063715018a6146103c9578063755edd17146103e05780638da5cb5b146103fc57806395d89b41146104275761014b565b806318160ddd1161010857806318160ddd1461025357806323b872dd1461027e57806342842e0e146102a7578063487c70fc146102d057806355f804b3146102fb5780636352211e146103245761014b565b806301ffc9a71461015057806306fdde031461018d578063081812fc146101b8578063095ea7b3146101f55780630e176e021461021e5780631249c58b14610249575b600080fd5b34801561015c57600080fd5b5061017760048036038101906101729190612676565b610570565b6040516101849190612a24565b60405180910390f35b34801561019957600080fd5b506101a2610652565b6040516101af9190612a3f565b60405180910390f35b3480156101c457600080fd5b506101df60048036038101906101da9190612709565b6106e4565b6040516101ec91906129bd565b60405180910390f35b34801561020157600080fd5b5061021c6004803603810190610217919061263a565b610760565b005b34801561022a57600080fd5b50610233610865565b6040516102409190612a3f565b60405180910390f35b6102516108f3565b005b34801561025f57600080fd5b50610268610a31565b6040516102759190612b21565b60405180910390f35b34801561028a57600080fd5b506102a560048036038101906102a09190612534565b610a48565b005b3480156102b357600080fd5b506102ce60048036038101906102c99190612534565b610a58565b005b3480156102dc57600080fd5b506102e5610a78565b6040516102f29190612b21565b60405180910390f35b34801561030757600080fd5b50610322600480360381019061031d91906126c8565b610a7e565b005b34801561033057600080fd5b5061034b60048036038101906103469190612709565b610b14565b60405161035891906129bd565b60405180910390f35b34801561036d57600080fd5b50610388600480360381019061038391906124cf565b610b2a565b6040516103959190612b21565b60405180910390f35b3480156103aa57600080fd5b506103b3610bfa565b6040516103c09190612a3f565b60405180910390f35b3480156103d557600080fd5b506103de610c8c565b005b6103fa60048036038101906103f591906124cf565b610d14565b005b34801561040857600080fd5b50610411610e4c565b60405161041e91906129bd565b60405180910390f35b34801561043357600080fd5b5061043c610e76565b6040516104499190612a3f565b60405180910390f35b34801561045e57600080fd5b50610479600480360381019061047491906125fe565b610f08565b005b34801561048757600080fd5b506104a2600480360381019061049d9190612709565b611080565b005b3480156104b057600080fd5b506104cb60048036038101906104c69190612583565b61114b565b005b3480156104d957600080fd5b506104f460048036038101906104ef9190612709565b6111c3565b6040516105019190612a3f565b60405180910390f35b34801561051657600080fd5b50610531600480360381019061052c91906124f8565b611237565b60405161053e9190612a24565b60405180910390f35b34801561055357600080fd5b5061056e600480360381019061056991906124cf565b6112cb565b005b60007f80ac58cd000000000000000000000000000000000000000000000000000000007bffffffffffffffffffffffffffffffffffffffffffffffffffffffff1916827bffffffffffffffffffffffffffffffffffffffffffffffffffffffff1916148061063b57507f5b5e139f000000000000000000000000000000000000000000000000000000007bffffffffffffffffffffffffffffffffffffffffffffffffffffffff1916827bffffffffffffffffffffffffffffffffffffffffffffffffffffffff1916145b8061064b575061064a826113c3565b5b9050919050565b60606002805461066190612d27565b80601f016020809104026020016040519081016040528092919081815260200182805461068d90612d27565b80156106da5780601f106106af576101008083540402835291602001916106da565b820191906000526020600020905b8154815290600101906020018083116106bd57829003601f168201915b5050505050905090565b60006106ef8261142d565b610725576040517fcf4700e400000000000000000000000000000000000000000000000000000000815260040160405180910390fd5b6006600083815260200190815260200160002060009054906101000a900473ffffffffffffffffffffffffffffffffffffffff169050919050565b600061076b82610b14565b90508073ffffffffffffffffffffffffffffffffffffffff168373ffffffffffffffffffffffffffffffffffffffff1614156107d3576040517f943f7b8c00000000000000000000000000000000000000000000000000000000815260040160405180910390fd5b8073ffffffffffffffffffffffffffffffffffffffff166107f261147b565b73ffffffffffffffffffffffffffffffffffffffff16146108555761081e8161081961147b565b611237565b610854576040517fcfb3b94200000000000000000000000000000000000000000000000000000000815260040160405180910390fd5b5b610860838383611483565b505050565b600a805461087290612d27565b80601f016020809104026020016040519081016040528092919081815260200182805461089e90612d27565b80156108eb5780601f106108c0576101008083540402835291602001916108eb565b820191906000526020600020905b8154815290600101906020018083116108ce57829003601f168201915b505050505081565b600b546001610900610a31565b61090a9190612c1b565b111561094b576040517f08c379a000000000000000000000000000000000000000000000000000000000815260040161094290612ae1565b60405180910390fd5b60026009541415610991576040517f08c379a000000000000000000000000000000000000000000000000000000000815260040161098890612b01565b60405180910390fd5b60026009819055506109a161147b565b73ffffffffffffffffffffffffffffffffffffffff166109bf610e4c565b73ffffffffffffffffffffffffffffffffffffffff1614610a15576040517f08c379a0000000000000000000000000000000000000000000000000000000008152600401610a0c90612ac1565b60405180910390fd5b610a27610a2061147b565b6001611535565b6001600981905550565b6000610a3b611553565b6001546000540303905090565b610a53838383611558565b505050565b610a738383836040518060200160405280600081525061114b565b505050565b600b5481565b610a8661147b565b73ffffffffffffffffffffffffffffffffffffffff16610aa4610e4c565b73ffffffffffffffffffffffffffffffffffffffff1614610afa576040517f08c379a0000000000000000000000000000000000000000000000000000000008152600401610af190612ac1565b60405180910390fd5b80600a9080519060200190610b109291906122b0565b5050565b6000610b1f82611a0e565b600001519050919050565b60008073ffffffffffffffffffffffffffffffffffffffff168273ffffffffffffffffffffffffffffffffffffffff161415610b92576040517f8f4eb60400000000000000000000000000000000000000000000000000000000815260040160405180910390fd5b600560008373ffffffffffffffffffffffffffffffffffffffff1673ffffffffffffffffffffffffffffffffffffffff16815260200190815260200160002060000160009054906101000a900467ffffffffffffffff1667ffffffffffffffff169050919050565b6060600a8054610c0990612d27565b80601f0160208091040260200160405190810160405280929190818152602001828054610c3590612d27565b8015610c825780601f10610c5757610100808354040283529160200191610c82565b820191906000526020600020905b815481529060010190602001808311610c6557829003601f168201915b5050505050905090565b610c9461147b565b73ffffffffffffffffffffffffffffffffffffffff16610cb2610e4c565b73ffffffffffffffffffffffffffffffffffffffff1614610d08576040517f08c379a0000000000000000000000000000000000000000000000000000000008152600401610cff90612ac1565b60405180910390fd5b610d126000611c99565b565b600b546001610d21610a31565b610d2b9190612c1b565b1115610d6c576040517f08c379a0000000000000000000000000000000000000000000000000000000008152600401610d6390612ae1565b60405180910390fd5b60026009541415610db2576040517f08c379a0000000000000000000000000000000000000000000000000000000008152600401610da990612b01565b60405180910390fd5b6002600981905550610dc261147b565b73ffffffffffffffffffffffffffffffffffffffff16610de0610e4c565b73ffffffffffffffffffffffffffffffffffffffff1614610e36576040517f08c379a0000000000000000000000000000000000000000000000000000000008152600401610e2d90612ac1565b60405180910390fd5b610e41816001611535565b600160098190555050565b6000600860009054906101000a900473ffffffffffffffffffffffffffffffffffffffff16905090565b606060038054610e8590612d27565b80601f0160208091040260200160405190810160405280929190818152602001828054610eb190612d27565b8015610efe5780601f10610ed357610100808354040283529160200191610efe565b820191906000526020600020905b815481529060010190602001808311610ee157829003601f168201915b5050505050905090565b610f1061147b565b73ffffffffffffffffffffffffffffffffffffffff168273ffffffffffffffffffffffffffffffffffffffff161415610f75576040517fb06307db00000000000000000000000000000000000000000000000000000000815260040160405180910390fd5b8060076000610f8261147b565b73ffffffffffffffffffffffffffffffffffffffff1673ffffffffffffffffffffffffffffffffffffffff16815260200190815260200160002060008473ffffffffffffffffffffffffffffffffffffffff1673ffffffffffffffffffffffffffffffffffffffff16815260200190815260200160002060006101000a81548160ff0219169083151502179055508173ffffffffffffffffffffffffffffffffffffffff1661102f61147b565b73ffffffffffffffffffffffffffffffffffffffff167f17307eab39ab6107e8899845ad3d59bd9653f200f220920489ca2b5937696c31836040516110749190612a24565b60405180910390a35050565b61108861147b565b73ffffffffffffffffffffffffffffffffffffffff166110a6610e4c565b73ffffffffffffffffffffffffffffffffffffffff16146110fc576040517f08c379a00000000000000000000000000000000000000000000000000000000081526004016110f390612ac1565b60405180910390fd5b600b54811015611141576040517f08c379a000000000000000000000000000000000000000000000000000000000815260040161113890612aa1565b60405180910390fd5b80600b8190555050565b611156848484611558565b6111758373ffffffffffffffffffffffffffffffffffffffff16611d5f565b156111bd5761118684848484611d82565b6111bc576040517fd1a57ed600000000000000000000000000000000000000000000000000000000815260040160405180910390fd5b5b50505050565b60606111ce8261142d565b61120d576040517f08c379a000000000000000000000000000000000000000000000000000000000815260040161120490612a81565b60405180910390fd5b600a8260405160200161122192919061297f565b6040516020818303038152906040529050919050565b6000600760008473ffffffffffffffffffffffffffffffffffffffff1673ffffffffffffffffffffffffffffffffffffffff16815260200190815260200160002060008373ffffffffffffffffffffffffffffffffffffffff1673ffffffffffffffffffffffffffffffffffffffff16815260200190815260200160002060009054906101000a900460ff16905092915050565b6112d361147b565b73ffffffffffffffffffffffffffffffffffffffff166112f1610e4c565b73ffffffffffffffffffffffffffffffffffffffff1614611347576040517f08c379a000000000000000000000000000000000000000000000000000000000815260040161133e90612ac1565b60405180910390fd5b600073ffffffffffffffffffffffffffffffffffffffff168173ffffffffffffffffffffffffffffffffffffffff1614156113b7576040517f08c379a00000000000000000000000000000000000000000000000000000000081526004016113ae90612a61565b60405180910390fd5b6113c081611c99565b50565b60007f01ffc9a7000000000000000000000000000000000000000000000000000000007bffffffffffffffffffffffffffffffffffffffffffffffffffffffff1916827bffffffffffffffffffffffffffffffffffffffffffffffffffffffff1916149050919050565b600081611438611553565b11158015611447575060005482105b8015611474575060046000838152602001908152602001600020600001601c9054906101000a900460ff16155b9050919050565b600033905090565b826006600084815260200190815260200160002060006101000a81548173ffffffffffffffffffffffffffffffffffffffff021916908373ffffffffffffffffffffffffffffffffffffffff160217905550818373ffffffffffffffffffffffffffffffffffffffff168273ffffffffffffffffffffffffffffffffffffffff167f8c5be1e5ebec7d5bd14f71427d1e84f3dd0314c0f7b2291e5b200ac8c7c3b92560405160405180910390a4505050565b61154f828260405180602001604052806000815250611ee2565b5050565b600090565b600061156382611a0e565b90508373ffffffffffffffffffffffffffffffffffffffff16816000015173ffffffffffffffffffffffffffffffffffffffff16146115ce576040517fa114810000000000000000000000000000000000000000000000000000000000815260040160405180910390fd5b60008473ffffffffffffffffffffffffffffffffffffffff166115ef61147b565b73ffffffffffffffffffffffffffffffffffffffff16148061161e575061161d8561161861147b565b611237565b5b80611663575061162c61147b565b73ffffffffffffffffffffffffffffffffffffffff1661164b846106e4565b73ffffffffffffffffffffffffffffffffffffffff16145b90508061169c576040517f59c896be00000000000000000000000000000000000000000000000000000000815260040160405180910390fd5b600073ffffffffffffffffffffffffffffffffffffffff168473ffffffffffffffffffffffffffffffffffffffff161415611703576040517fea553b3400000000000000000000000000000000000000000000000000000000815260040160405180910390fd5b61171085858560016122a4565b61171c60008487611483565b6001600560008773ffffffffffffffffffffffffffffffffffffffff1673ffffffffffffffffffffffffffffffffffffffff16815260200190815260200160002060000160008282829054906101000a900467ffffffffffffffff160392506101000a81548167ffffffffffffffff021916908367ffffffffffffffff1602179055506001600560008673ffffffffffffffffffffffffffffffffffffffff1673ffffffffffffffffffffffffffffffffffffffff16815260200190815260200160002060000160008282829054906101000a900467ffffffffffffffff160192506101000a81548167ffffffffffffffff021916908367ffffffffffffffff1602179055506000600460008581526020019081526020016000209050848160000160006101000a81548173ffffffffffffffffffffffffffffffffffffffff021916908373ffffffffffffffffffffffffffffffffffffffff160217905550428160000160146101000a81548167ffffffffffffffff021916908367ffffffffffffffff16021790555060006001850190506000600460008381526020019081526020016000209050600073ffffffffffffffffffffffffffffffffffffffff168160000160009054906101000a900473ffffffffffffffffffffffffffffffffffffffff1673ffffffffffffffffffffffffffffffffffffffff16141561199c57600054821461199b57878160000160006101000a81548173ffffffffffffffffffffffffffffffffffffffff021916908373ffffffffffffffffffffffffffffffffffffffff16021790555084602001518160000160146101000a81548167ffffffffffffffff021916908367ffffffffffffffff1602179055505b5b505050828473ffffffffffffffffffffffffffffffffffffffff168673ffffffffffffffffffffffffffffffffffffffff167fddf252ad1be2c89b69c2b068fc378daa952ba7f163c4a11628f55a4df523b3ef60405160405180910390a4611a0785858560016122aa565b5050505050565b611a16612336565b600082905080611a24611553565b11611c6257600054811015611c61576000600460008381526020019081526020016000206040518060600160405290816000820160009054906101000a900473ffffffffffffffffffffffffffffffffffffffff1673ffffffffffffffffffffffffffffffffffffffff1673ffffffffffffffffffffffffffffffffffffffff1681526020016000820160149054906101000a900467ffffffffffffffff1667ffffffffffffffff1667ffffffffffffffff16815260200160008201601c9054906101000a900460ff16151515158152505090508060400151611c5f57600073ffffffffffffffffffffffffffffffffffffffff16816000015173ffffffffffffffffffffffffffffffffffffffff1614611b43578092505050611c94565b5b600115611c5e57818060019003925050600460008381526020019081526020016000206040518060600160405290816000820160009054906101000a900473ffffffffffffffffffffffffffffffffffffffff1673ffffffffffffffffffffffffffffffffffffffff1673ffffffffffffffffffffffffffffffffffffffff1681526020016000820160149054906101000a900467ffffffffffffffff1667ffffffffffffffff1667ffffffffffffffff16815260200160008201601c9054906101000a900460ff1615151515815250509050600073ffffffffffffffffffffffffffffffffffffffff16816000015173ffffffffffffffffffffffffffffffffffffffff1614611c59578092505050611c94565b611b44565b5b505b5b6040517fdf2d9b4200000000000000000000000000000000000000000000000000000000815260040160405180910390fd5b919050565b6000600860009054906101000a900473ffffffffffffffffffffffffffffffffffffffff16905081600860006101000a81548173ffffffffffffffffffffffffffffffffffffffff021916908373ffffffffffffffffffffffffffffffffffffffff1602179055508173ffffffffffffffffffffffffffffffffffffffff168173ffffffffffffffffffffffffffffffffffffffff167f8be0079c531659141344cd1fd0a4f28419497f9722a3daafe3b4186f6b6457e060405160405180910390a35050565b6000808273ffffffffffffffffffffffffffffffffffffffff163b119050919050565b60008373ffffffffffffffffffffffffffffffffffffffff1663150b7a02611da861147b565b8786866040518563ffffffff1660e01b8152600401611dca94939291906129d8565b602060405180830381600087803b158015611de457600080fd5b505af1925050508015611e1557506040513d601f19601f82011682018060405250810190611e12919061269f565b60015b611e8f573d8060008114611e45576040519150601f19603f3d011682016040523d82523d6000602084013e611e4a565b606091505b50600081511415611e87576040517fd1a57ed600000000000000000000000000000000000000000000000000000000815260040160405180910390fd5b805181602001fd5b63150b7a0260e01b7bffffffffffffffffffffffffffffffffffffffffffffffffffffffff1916817bffffffffffffffffffffffffffffffffffffffffffffffffffffffff191614915050949350505050565b600080549050600073ffffffffffffffffffffffffffffffffffffffff168473ffffffffffffffffffffffffffffffffffffffff161415611f4f576040517f2e07630000000000000000000000000000000000000000000000000000000000815260040160405180910390fd5b6000831415611f8a576040517fb562e8dd00000000000000000000000000000000000000000000000000000000815260040160405180910390fd5b611f9760008583866122a4565b82600560008673ffffffffffffffffffffffffffffffffffffffff1673ffffffffffffffffffffffffffffffffffffffff16815260200190815260200160002060000160008282829054906101000a900467ffffffffffffffff160192506101000a81548167ffffffffffffffff021916908367ffffffffffffffff16021790555082600560008673ffffffffffffffffffffffffffffffffffffffff1673ffffffffffffffffffffffffffffffffffffffff16815260200190815260200160002060000160088282829054906101000a900467ffffffffffffffff160192506101000a81548167ffffffffffffffff021916908367ffffffffffffffff160217905550836004600083815260200190815260200160002060000160006101000a81548173ffffffffffffffffffffffffffffffffffffffff021916908373ffffffffffffffffffffffffffffffffffffffff160217905550426004600083815260200190815260200160002060000160146101000a81548167ffffffffffffffff021916908367ffffffffffffffff1602179055506000819050600084820190506121588673ffffffffffffffffffffffffffffffffffffffff16611d5f565b1561221d575b818673ffffffffffffffffffffffffffffffffffffffff16600073ffffffffffffffffffffffffffffffffffffffff167fddf252ad1be2c89b69c2b068fc378daa952ba7f163c4a11628f55a4df523b3ef60405160405180910390a46121cd6000878480600101955087611d82565b612203576040517fd1a57ed600000000000000000000000000000000000000000000000000000000815260040160405180910390fd5b80821061215e57826000541461221857600080fd5b612288565b5b818060010192508673ffffffffffffffffffffffffffffffffffffffff16600073ffffffffffffffffffffffffffffffffffffffff167fddf252ad1be2c89b69c2b068fc378daa952ba7f163c4a11628f55a4df523b3ef60405160405180910390a480821061221e575b81600081905550505061229e60008583866122aa565b50505050565b50505050565b50505050565b8280546122bc90612d27565b90600052602060002090601f0160209004810192826122de5760008555612325565b82601f106122f757805160ff1916838001178555612325565b82800160010185558215612325579182015b82811115612324578251825591602001919060010190612309565b5b5090506123329190612379565b5090565b6040518060600160405280600073ffffffffffffffffffffffffffffffffffffffff168152602001600067ffffffffffffffff1681526020016000151581525090565b5b8082111561239257600081600090555060010161237a565b5090565b60006123a96123a484612b61565b612b3c565b9050828152602081018484840111156123c157600080fd5b6123cc848285612ce5565b509392505050565b60006123e76123e284612b92565b612b3c565b9050828152602081018484840111156123ff57600080fd5b61240a848285612ce5565b509392505050565b60008135905061242181612fc6565b92915050565b60008135905061243681612fdd565b92915050565b60008135905061244b81612ff4565b92915050565b60008151905061246081612ff4565b92915050565b600082601f83011261247757600080fd5b8135612487848260208601612396565b91505092915050565b600082601f8301126124a157600080fd5b81356124b18482602086016123d4565b91505092915050565b6000813590506124c98161300b565b92915050565b6000602082840312156124e157600080fd5b60006124ef84828501612412565b91505092915050565b6000806040838503121561250b57600080fd5b600061251985828601612412565b925050602061252a85828601612412565b9150509250929050565b60008060006060848603121561254957600080fd5b600061255786828701612412565b935050602061256886828701612412565b9250506040612579868287016124ba565b9150509250925092565b6000806000806080858703121561259957600080fd5b60006125a787828801612412565b94505060206125b887828801612412565b93505060406125c9878288016124ba565b925050606085013567ffffffffffffffff8111156125e657600080fd5b6125f287828801612466565b91505092959194509250565b6000806040838503121561261157600080fd5b600061261f85828601612412565b925050602061263085828601612427565b9150509250929050565b6000806040838503121561264d57600080fd5b600061265b85828601612412565b925050602061266c858286016124ba565b9150509250929050565b60006020828403121561268857600080fd5b60006126968482850161243c565b91505092915050565b6000602082840312156126b157600080fd5b60006126bf84828501612451565b91505092915050565b6000602082840312156126da57600080fd5b600082013567ffffffffffffffff8111156126f457600080fd5b61270084828501612490565b91505092915050565b60006020828403121561271b57600080fd5b6000612729848285016124ba565b91505092915050565b61273b81612c71565b82525050565b61274a81612c83565b82525050565b600061275b82612bd8565b6127658185612bee565b9350612775818560208601612cf4565b61277e81612e21565b840191505092915050565b600061279482612be3565b61279e8185612bff565b93506127ae818560208601612cf4565b6127b781612e21565b840191505092915050565b600081546127cf81612d27565b6127d98186612c10565b945060018216600081146127f4576001811461280557612838565b60ff19831686528186019350612838565b61280e85612bc3565b60005b8381101561283057815481890152600182019150602081019050612811565b838801955050505b50505092915050565b600061284e602683612bff565b915061285982612e32565b604082019050919050565b6000612871601183612bff565b915061287c82612e81565b602082019050919050565b6000612894602783612bff565b915061289f82612eaa565b604082019050919050565b60006128b7600583612c10565b91506128c282612ef9565b600582019050919050565b60006128da602083612bff565b91506128e582612f22565b602082019050919050565b60006128fd600e83612bff565b915061290882612f4b565b602082019050919050565b6000612920601f83612bff565b915061292b82612f74565b602082019050919050565b6000612943600183612c10565b915061294e82612f9d565b600182019050919050565b61296281612cdb565b82525050565b61297961297482612cdb565b612d8a565b82525050565b600061298b82856127c2565b915061299682612936565b91506129a28284612968565b6020820191506129b1826128aa565b91508190509392505050565b60006020820190506129d26000830184612732565b92915050565b60006080820190506129ed6000830187612732565b6129fa6020830186612732565b612a076040830185612959565b8181036060830152612a198184612750565b905095945050505050565b6000602082019050612a396000830184612741565b92915050565b60006020820190508181036000830152612a598184612789565b905092915050565b60006020820190508181036000830152612a7a81612841565b9050919050565b60006020820190508181036000830152612a9a81612864565b9050919050565b60006020820190508181036000830152612aba81612887565b9050919050565b60006020820190508181036000830152612ada816128cd565b9050919050565b60006020820190508181036000830152612afa816128f0565b9050919050565b60006020820190508181036000830152612b1a81612913565b9050919050565b6000602082019050612b366000830184612959565b92915050565b6000612b46612b57565b9050612b528282612d59565b919050565b6000604051905090565b600067ffffffffffffffff821115612b7c57612b7b612df2565b5b612b8582612e21565b9050602081019050919050565b600067ffffffffffffffff821115612bad57612bac612df2565b5b612bb682612e21565b9050602081019050919050565b60008190508160005260206000209050919050565b600081519050919050565b600081519050919050565b600082825260208201905092915050565b600082825260208201905092915050565b600081905092915050565b6000612c2682612cdb565b9150612c3183612cdb565b9250827fffffffffffffffffffffffffffffffffffffffffffffffffffffffffffffffff03821115612c6657612c65612d94565b5b828201905092915050565b6000612c7c82612cbb565b9050919050565b60008115159050919050565b60007fffffffff0000000000000000000000000000000000000000000000000000000082169050919050565b600073ffffffffffffffffffffffffffffffffffffffff82169050919050565b6000819050919050565b82818337600083830152505050565b60005b83811015612d12578082015181840152602081019050612cf7565b83811115612d21576000848401525b50505050565b60006002820490506001821680612d3f57607f821691505b60208210811415612d5357612d52612dc3565b5b50919050565b612d6282612e21565b810181811067ffffffffffffffff82111715612d8157612d80612df2565b5b80604052505050565b6000819050919050565b7f4e487b7100000000000000000000000000000000000000000000000000000000600052601160045260246000fd5b7f4e487b7100000000000000000000000000000000000000000000000000000000600052602260045260246000fd5b7f4e487b7100000000000000000000000000000000000000000000000000000000600052604160045260246000fd5b6000601f19601f8301169050919050565b7f4f776e61626c653a206e6577206f776e657220697320746865207a65726f206160008201527f6464726573730000000000000000000000000000000000000000000000000000602082015250565b7f4e6f6e6578697374656e7420746f6b656e000000000000000000000000000000600082015250565b7f4275726e696e6720697320746865206f6e6c792077617920746f20646573747260008201527f6f79204e46547300000000000000000000000000000000000000000000000000602082015250565b7f2e6a736f6e000000000000000000000000000000000000000000000000000000600082015250565b7f4f776e61626c653a2063616c6c6572206973206e6f7420746865206f776e6572600082015250565b7f537570706c792072656163686564000000000000000000000000000000000000600082015250565b7f5265656e7472616e637947756172643a207265656e7472616e742063616c6c00600082015250565b7f2f00000000000000000000000000000000000000000000000000000000000000600082015250565b612fcf81612c71565b8114612fda57600080fd5b50565b612fe681612c83565b8114612ff157600080fd5b50565b612ffd81612c8f565b811461300857600080fd5b50565b61301481612cdb565b811461301f57600080fd5b5056fea2646970667358221220d7bcc9e33fd759fd775ad7e6234eceaebfa13243f1741f85d7ea30e5500b89ea64736f6c63430008040033",
  "linkReferences": {},
  "deployedLinkReferences": {}
}